{
  "contractName": "Hello",
  "abi": [
    {
      "inputs": [],
      "stateMutability": "nonpayable",
      "type": "constructor"
    },
    {
      "inputs": [],
      "name": "getGreetings",
      "outputs": [
        {
          "internalType": "string",
          "name": "",
          "type": "string"
        }
      ],
      "stateMutability": "view",
      "type": "function",
      "constant": true
    },
    {
      "inputs": [
        {
          "internalType": "string",
          "name": "_message",
          "type": "string"
        }
      ],
      "name": "setGreetings",
      "outputs": [],
      "stateMutability": "nonpayable",
      "type": "function"
    }
  ],
  "bytecode": "0x608060405234801561001057600080fd5b506040518060400160405280600c81526020017f48656c6c6f2c20576f726c6400000000000000000000000000000000000000008152506000908051906020019061005c929190610090565b506040518060200160405280600081525060029080519060200190610082929190610090565b506000600181905550610194565b82805461009c90610162565b90600052602060002090601f0160209004810192826100be5760008555610105565b82601f106100d757805160ff1916838001178555610105565b82800160010185558215610105579182015b828111156101045782518255916020019190600101906100e9565b5b5090506101129190610116565b5090565b5b8082111561012f576000816000905550600101610117565b5090565b7f4e487b7100000000000000000000000000000000000000000000000000000000600052602260045260246000fd5b6000600282049050600182168061017a57607f821691505b6020821081141561018e5761018d610133565b5b50919050565b6107a2806101a36000396000f3fe608060405234801561001057600080fd5b50600436106100365760003560e01c806349da5de41461003b578063ca4c3a4114610057575b600080fd5b6100556004803603810190610050919061044d565b610075565b005b61005f610131565b60405161006c919061051e565b60405180910390f35b80604051602001610086919061057c565b6040516020818303038152906040528051906020012060026040516020016100ae9190610688565b6040516020818303038152906040528051906020012014156100e85760018060008282546100dc91906106d8565b92505081905550610107565b80600290805190602001906100fe9291906101c3565b50600180819055505b60026001541261012e5760026000908054610121906105c2565b61012c929190610249565b505b50565b606060008054610140906105c2565b80601f016020809104026020016040519081016040528092919081815260200182805461016c906105c2565b80156101b95780601f1061018e576101008083540402835291602001916101b9565b820191906000526020600020905b81548152906001019060200180831161019c57829003601f168201915b5050505050905090565b8280546101cf906105c2565b90600052602060002090601f0160209004810192826101f15760008555610238565b82601f1061020a57805160ff1916838001178555610238565b82800160010185558215610238579182015b8281111561023757825182559160200191906001019061021c565b5b50905061024591906102d6565b5090565b828054610255906105c2565b90600052602060002090601f01602090048101928261027757600085556102c5565b82601f1061028857805485556102c5565b828001600101855582156102c557600052602060002091601f016020900482015b828111156102c45782548255916001019190600101906102a9565b5b5090506102d291906102d6565b5090565b5b808211156102ef5760008160009055506001016102d7565b5090565b6000604051905090565b600080fd5b600080fd5b600080fd5b600080fd5b6000601f19601f8301169050919050565b7f4e487b7100000000000000000000000000000000000000000000000000000000600052604160045260246000fd5b61035a82610311565b810181811067ffffffffffffffff8211171561037957610378610322565b5b80604052505050565b600061038c6102f3565b90506103988282610351565b919050565b600067ffffffffffffffff8211156103b8576103b7610322565b5b6103c182610311565b9050602081019050919050565b82818337600083830152505050565b60006103f06103eb8461039d565b610382565b90508281526020810184848401111561040c5761040b61030c565b5b6104178482856103ce565b509392505050565b600082601f83011261043457610433610307565b5b81356104448482602086016103dd565b91505092915050565b600060208284031215610463576104626102fd565b5b600082013567ffffffffffffffff81111561048157610480610302565b5b61048d8482850161041f565b91505092915050565b600081519050919050565b600082825260208201905092915050565b60005b838110156104d05780820151818401526020810190506104b5565b838111156104df576000848401525b50505050565b60006104f082610496565b6104fa81856104a1565b935061050a8185602086016104b2565b61051381610311565b840191505092915050565b6000602082019050818103600083015261053881846104e5565b905092915050565b600081905092915050565b600061055682610496565b6105608185610540565b93506105708185602086016104b2565b80840191505092915050565b6000610588828461054b565b915081905092915050565b7f4e487b7100000000000000000000000000000000000000000000000000000000600052602260045260246000fd5b600060028204905060018216806105da57607f821691505b602082108114156105ee576105ed610593565b5b50919050565b60008190508160005260206000209050919050565b60008154610616816105c2565b6106208186610540565b9450600182166000811461063b576001811461064c5761067f565b60ff1983168652818601935061067f565b610655856105f4565b60005b8381101561067757815481890152600182019150602081019050610658565b838801955050505b50505092915050565b60006106948284610609565b915081905092915050565b6000819050919050565b7f4e487b7100000000000000000000000000000000000000000000000000000000600052601160045260246000fd5b60006106e38261069f565b91506106ee8361069f565b9250817f7fffffffffffffffffffffffffffffffffffffffffffffffffffffffffffffff03831360008312151615610729576107286106a9565b5b817f8000000000000000000000000000000000000000000000000000000000000000038312600083121615610761576107606106a9565b5b82820190509291505056fea2646970667358221220cb72461a616cf0551956279e3968f46f10aae76339eb36dd23da73322024ddd364736f6c634300080c0033",
  "immutableReferences": {},
  "source": "pragma solidity ^0.8.12;\ncontract Hello {\n   string message;\n   int counter;\n   string proposal;\n\n   constructor() {\n\n   message = \"Hello, World\";\n   proposal = \"\";\n   counter = 0;\n\n   }\n   function getGreetings() public view returns (string memory)\n   {\n     return message;\n   }\n   function setGreetings(string memory _message) public{\n     if (keccak256(abi.encodePacked(proposal)) == keccak256(abi.encodePacked(_message))) {\n        counter += 1;\n     } else {\n        proposal = _message;\n        counter = 1;\n     }\n     /// if counter >= f+1 commit the message\n     if (counter >= 2) {\n        message = proposal;\n    }\n   }\n\n}\n",
  "sourcePath": "/Users/faziletcilli/school/CS295/project/truffle/contracts/Hello.sol",
  "compiler": {
    "name": "solc",
    "version": "0.8.12+commit.f00d7308.Emscripten.clang"
  },
  "schemaVersion": "3.4.5",
  "updatedAt": "2022-03-13T22:03:29.609Z",
  "networkType": "ethereum",
  "devdoc": {
    "kind": "dev",
    "methods": {},
    "version": 1
  },
  "userdoc": {
    "kind": "user",
    "methods": {},
    "version": 1
  }
}